{
  "_format": "hh-sol-artifact-1",
  "contractName": "Aave",
  "sourceName": "contracts/Aave.sol",
  "abi": [
    {
      "inputs": [
        {
          "internalType": "address",
          "name": "_aToken",
          "type": "address"
        },
        {
          "internalType": "address",
          "name": "_lendingPoolProvider",
          "type": "address"
        },
        {
          "internalType": "address",
          "name": "_aaveV2Contract",
          "type": "address"
        }
      ],
      "stateMutability": "nonpayable",
      "type": "constructor"
    },
    {
      "inputs": [],
      "name": "allowance",
      "outputs": [
        {
          "internalType": "uint256",
          "name": "",
          "type": "uint256"
        }
      ],
      "stateMutability": "view",
      "type": "function"
    },
    {
      "inputs": [
        {
          "internalType": "address",
          "name": "user",
          "type": "address"
        }
      ],
      "name": "getBalance",
      "outputs": [
        {
          "internalType": "uint256",
          "name": "",
          "type": "uint256"
        }
      ],
      "stateMutability": "view",
      "type": "function"
    },
    {
      "inputs": [],
      "name": "getLendingPoolAddress",
      "outputs": [
        {
          "internalType": "address",
          "name": "",
          "type": "address"
        }
      ],
      "stateMutability": "view",
      "type": "function"
    },
    {
      "inputs": [],
      "name": "iAToken",
      "outputs": [
        {
          "internalType": "contract IAToken",
          "name": "",
          "type": "address"
        }
      ],
      "stateMutability": "view",
      "type": "function"
    },
    {
      "inputs": [],
      "name": "stakeEth",
      "outputs": [],
      "stateMutability": "payable",
      "type": "function"
    },
    {
      "inputs": [
        {
          "internalType": "uint256",
          "name": "_amount",
          "type": "uint256"
        }
      ],
      "name": "withdrawEth",
      "outputs": [],
      "stateMutability": "nonpayable",
      "type": "function"
    },
    {
      "stateMutability": "payable",
      "type": "receive"
    }
  ],
  "bytecode": "0x608060405234801561001057600080fd5b50604051610cda380380610cda833981810160405281019061003291906101a0565b826000806101000a81548173ffffffffffffffffffffffffffffffffffffffff021916908373ffffffffffffffffffffffffffffffffffffffff16021790555080600160006101000a81548173ffffffffffffffffffffffffffffffffffffffff021916908373ffffffffffffffffffffffffffffffffffffffff16021790555081600260006101000a81548173ffffffffffffffffffffffffffffffffffffffff021916908373ffffffffffffffffffffffffffffffffffffffff16021790555080600360006101000a81548173ffffffffffffffffffffffffffffffffffffffff021916908373ffffffffffffffffffffffffffffffffffffffff1602179055505050506101f3565b600080fd5b600073ffffffffffffffffffffffffffffffffffffffff82169050919050565b600061016d82610142565b9050919050565b61017d81610162565b811461018857600080fd5b50565b60008151905061019a81610174565b92915050565b6000806000606084860312156101b9576101b861013d565b5b60006101c78682870161018b565b93505060206101d88682870161018b565b92505060406101e98682870161018b565b9150509250925092565b610ad8806102026000396000f3fe6080604052600436106100595760003560e01c80635f36a742146100655780637a5f0dc4146100905780637a904aed1461009a578063c311d049146100c5578063de242ff4146100ee578063f8b2cb4f1461011957610060565b3661006057005b600080fd5b34801561007157600080fd5b5061007a610156565b6040516100879190610647565b60405180910390f35b6100986101ee565b005b3480156100a657600080fd5b506100af6102d1565b6040516100bc91906106c1565b60405180910390f35b3480156100d157600080fd5b506100ec60048036038101906100e79190610717565b6102f5565b005b3480156100fa57600080fd5b5061010361049c565b6040516101109190610753565b60405180910390f35b34801561012557600080fd5b50610140600480360381019061013b919061079a565b610562565b60405161014d9190610753565b60405180910390f35b6000600260009054906101000a900473ffffffffffffffffffffffffffffffffffffffff1673ffffffffffffffffffffffffffffffffffffffff16630261bf8b6040518163ffffffff1660e01b8152600401602060405180830381865afa1580156101c5573d6000803e3d6000fd5b505050506040513d601f19601f820116820180604052508101906101e991906107dc565b905090565b60006101f8610156565b9050600160009054906101000a900473ffffffffffffffffffffffffffffffffffffffff1673ffffffffffffffffffffffffffffffffffffffff1663474cf53d34833060006040518563ffffffff1660e01b815260040161025b93929190610852565b6000604051808303818588803b15801561027457600080fd5b505af1158015610288573d6000803e3d6000fd5b505050505060016102ce576040517f08c379a00000000000000000000000000000000000000000000000000000000081526004016102c5906108e6565b60405180910390fd5b50565b60008054906101000a900473ffffffffffffffffffffffffffffffffffffffff1681565b60006102ff610156565b905060008060009054906101000a900473ffffffffffffffffffffffffffffffffffffffff1673ffffffffffffffffffffffffffffffffffffffff1663095ea7b3600360009054906101000a900473ffffffffffffffffffffffffffffffffffffffff16856040518363ffffffff1660e01b8152600401610381929190610906565b6020604051808303816000875af11580156103a0573d6000803e3d6000fd5b505050506040513d601f19601f820116820180604052508101906103c49190610967565b905080610406576040517f08c379a00000000000000000000000000000000000000000000000000000000081526004016103fd906109e0565b60405180910390fd5b600160009054906101000a900473ffffffffffffffffffffffffffffffffffffffff1673ffffffffffffffffffffffffffffffffffffffff166380500d208385306040518463ffffffff1660e01b815260040161046593929190610a00565b600060405180830381600087803b15801561047f57600080fd5b505af1158015610493573d6000803e3d6000fd5b50505050505050565b60008060009054906101000a900473ffffffffffffffffffffffffffffffffffffffff1673ffffffffffffffffffffffffffffffffffffffff1663dd62ed3e30600360009054906101000a900473ffffffffffffffffffffffffffffffffffffffff166040518363ffffffff1660e01b815260040161051c929190610a37565b602060405180830381865afa158015610539573d6000803e3d6000fd5b505050506040513d601f19601f8201168201806040525081019061055d9190610a75565b905090565b60008060009054906101000a900473ffffffffffffffffffffffffffffffffffffffff1673ffffffffffffffffffffffffffffffffffffffff166370a08231836040518263ffffffff1660e01b81526004016105be9190610647565b602060405180830381865afa1580156105db573d6000803e3d6000fd5b505050506040513d601f19601f820116820180604052508101906105ff9190610a75565b9050919050565b600073ffffffffffffffffffffffffffffffffffffffff82169050919050565b600061063182610606565b9050919050565b61064181610626565b82525050565b600060208201905061065c6000830184610638565b92915050565b6000819050919050565b600061068761068261067d84610606565b610662565b610606565b9050919050565b60006106998261066c565b9050919050565b60006106ab8261068e565b9050919050565b6106bb816106a0565b82525050565b60006020820190506106d660008301846106b2565b92915050565b600080fd5b6000819050919050565b6106f4816106e1565b81146106ff57600080fd5b50565b600081359050610711816106eb565b92915050565b60006020828403121561072d5761072c6106dc565b5b600061073b84828501610702565b91505092915050565b61074d816106e1565b82525050565b60006020820190506107686000830184610744565b92915050565b61077781610626565b811461078257600080fd5b50565b6000813590506107948161076e565b92915050565b6000602082840312156107b0576107af6106dc565b5b60006107be84828501610785565b91505092915050565b6000815190506107d68161076e565b92915050565b6000602082840312156107f2576107f16106dc565b5b6000610800848285016107c7565b91505092915050565b6000819050919050565b600061ffff82169050919050565b600061083c61083761083284610809565b610662565b610813565b9050919050565b61084c81610821565b82525050565b60006060820190506108676000830186610638565b6108746020830185610638565b6108816040830184610843565b949350505050565b600082825260208201905092915050565b7f4465706f73697420746f2041617665206661696c656400000000000000000000600082015250565b60006108d0601683610889565b91506108db8261089a565b602082019050919050565b600060208201905081810360008301526108ff816108c3565b9050919050565b600060408201905061091b6000830185610638565b6109286020830184610744565b9392505050565b60008115159050919050565b6109448161092f565b811461094f57600080fd5b50565b6000815190506109618161093b565b92915050565b60006020828403121561097d5761097c6106dc565b5b600061098b84828501610952565b91505092915050565b7f417070726f7665206661696c6564000000000000000000000000000000000000600082015250565b60006109ca600e83610889565b91506109d582610994565b602082019050919050565b600060208201905081810360008301526109f9816109bd565b9050919050565b6000606082019050610a156000830186610638565b610a226020830185610744565b610a2f6040830184610638565b949350505050565b6000604082019050610a4c6000830185610638565b610a596020830184610638565b9392505050565b600081519050610a6f816106eb565b92915050565b600060208284031215610a8b57610a8a6106dc565b5b6000610a9984828501610a60565b9150509291505056fea26469706673582212202cd6a68b438ed11328628194b29f73e8845205f83eaf6a942bc83b935225be8964736f6c63430008120033",
  "linkReferences": {},
  "deployedLinkReferences": {}
}