{
  "_format": "hh-sol-artifact-1",
  "contractName": "Aave",
  "sourceName": "contracts/Aave.sol",
  "abi": [
    {
      "inputs": [
        {
          "internalType": "address",
          "name": "_aToken",
          "type": "address"
        },
        {
          "internalType": "address",
          "name": "_lendingPoolProvider",
          "type": "address"
        },
        {
          "internalType": "address",
          "name": "_aaveV2Contract",
          "type": "address"
        }
      ],
      "stateMutability": "nonpayable",
      "type": "constructor"
    },
    {
      "anonymous": false,
      "inputs": [
        {
          "indexed": true,
          "internalType": "address",
          "name": "user",
          "type": "address"
        },
        {
          "indexed": false,
          "internalType": "uint256",
          "name": "amount",
          "type": "uint256"
        },
        {
          "indexed": false,
          "internalType": "uint256",
          "name": "timestamp",
          "type": "uint256"
        }
      ],
      "name": "StakeEth",
      "type": "event"
    },
    {
      "anonymous": false,
      "inputs": [
        {
          "indexed": true,
          "internalType": "address",
          "name": "user",
          "type": "address"
        },
        {
          "indexed": false,
          "internalType": "uint256",
          "name": "amount",
          "type": "uint256"
        },
        {
          "indexed": false,
          "internalType": "uint256",
          "name": "timestamp",
          "type": "uint256"
        }
      ],
      "name": "WithdrawEth",
      "type": "event"
    },
    {
      "inputs": [],
      "name": "allowance",
      "outputs": [
        {
          "internalType": "uint256",
          "name": "",
          "type": "uint256"
        }
      ],
      "stateMutability": "view",
      "type": "function"
    },
    {
      "inputs": [
        {
          "internalType": "address",
          "name": "user",
          "type": "address"
        }
      ],
      "name": "getBalance",
      "outputs": [
        {
          "internalType": "uint256",
          "name": "",
          "type": "uint256"
        }
      ],
      "stateMutability": "view",
      "type": "function"
    },
    {
      "inputs": [],
      "name": "getLendingPoolAddress",
      "outputs": [
        {
          "internalType": "address",
          "name": "",
          "type": "address"
        }
      ],
      "stateMutability": "view",
      "type": "function"
    },
    {
      "inputs": [],
      "name": "iAToken",
      "outputs": [
        {
          "internalType": "contract IAToken",
          "name": "",
          "type": "address"
        }
      ],
      "stateMutability": "view",
      "type": "function"
    },
    {
      "inputs": [],
      "name": "stakeEth",
      "outputs": [],
      "stateMutability": "payable",
      "type": "function"
    },
    {
      "inputs": [
        {
          "internalType": "uint256",
          "name": "_amount",
          "type": "uint256"
        }
      ],
      "name": "withdrawEth",
      "outputs": [],
      "stateMutability": "nonpayable",
      "type": "function"
    },
    {
      "stateMutability": "payable",
      "type": "receive"
    }
  ],
  "bytecode": "0x60806040523480156200001157600080fd5b5060405162000e8038038062000e808339818101604052810190620000379190620001ad565b826000806101000a81548173ffffffffffffffffffffffffffffffffffffffff021916908373ffffffffffffffffffffffffffffffffffffffff16021790555080600160006101000a81548173ffffffffffffffffffffffffffffffffffffffff021916908373ffffffffffffffffffffffffffffffffffffffff16021790555081600260006101000a81548173ffffffffffffffffffffffffffffffffffffffff021916908373ffffffffffffffffffffffffffffffffffffffff16021790555080600360006101000a81548173ffffffffffffffffffffffffffffffffffffffff021916908373ffffffffffffffffffffffffffffffffffffffff16021790555050505062000209565b600080fd5b600073ffffffffffffffffffffffffffffffffffffffff82169050919050565b6000620001758262000148565b9050919050565b620001878162000168565b81146200019357600080fd5b50565b600081519050620001a7816200017c565b92915050565b600080600060608486031215620001c957620001c862000143565b5b6000620001d98682870162000196565b9350506020620001ec8682870162000196565b9250506040620001ff8682870162000196565b9150509250925092565b610c6780620002196000396000f3fe6080604052600436106100595760003560e01c80635f36a742146100655780637a5f0dc4146100905780637a904aed1461009a578063c311d049146100c5578063de242ff4146100ee578063f8b2cb4f1461011957610060565b3661006057005b600080fd5b34801561007157600080fd5b5061007a610156565b60405161008791906107e2565b60405180910390f35b6100986101ee565b005b3480156100a657600080fd5b506100af6103c0565b6040516100bc919061085c565b60405180910390f35b3480156100d157600080fd5b506100ec60048036038101906100e791906108b2565b6103e4565b005b3480156100fa57600080fd5b50610103610637565b60405161011091906108ee565b60405180910390f35b34801561012557600080fd5b50610140600480360381019061013b9190610935565b6106fd565b60405161014d91906108ee565b60405180910390f35b6000600260009054906101000a900473ffffffffffffffffffffffffffffffffffffffff1673ffffffffffffffffffffffffffffffffffffffff16630261bf8b6040518163ffffffff1660e01b8152600401602060405180830381865afa1580156101c5573d6000803e3d6000fd5b505050506040513d601f19601f820116820180604052508101906101e99190610977565b905090565b60006101f8610156565b9050600160009054906101000a900473ffffffffffffffffffffffffffffffffffffffff1673ffffffffffffffffffffffffffffffffffffffff1663474cf53d34833060006040518563ffffffff1660e01b815260040161025b939291906109ed565b6000604051808303818588803b15801561027457600080fd5b505af1158015610288573d6000803e3d6000fd5b505050505060008054906101000a900473ffffffffffffffffffffffffffffffffffffffff1673ffffffffffffffffffffffffffffffffffffffff1663a9059cbb33346040518363ffffffff1660e01b81526004016102e8929190610a24565b6020604051808303816000875af1158015610307573d6000803e3d6000fd5b505050506040513d601f19601f8201168201806040525081019061032b9190610a85565b50600161036d576040517f08c379a000000000000000000000000000000000000000000000000000000000815260040161036490610b0f565b60405180910390fd5b3373ffffffffffffffffffffffffffffffffffffffff167f12b07dc802b9024f3b9a0d0f713e98fb2f2cd379060499a9bb717fbe04c6530b34426040516103b5929190610b2f565b60405180910390a250565b60008054906101000a900473ffffffffffffffffffffffffffffffffffffffff1681565b60006103ee610156565b905060008054906101000a900473ffffffffffffffffffffffffffffffffffffffff1673ffffffffffffffffffffffffffffffffffffffff166323b872dd3330856040518463ffffffff1660e01b815260040161044d93929190610b58565b6020604051808303816000875af115801561046c573d6000803e3d6000fd5b505050506040513d601f19601f820116820180604052508101906104909190610a85565b5060008054906101000a900473ffffffffffffffffffffffffffffffffffffffff1673ffffffffffffffffffffffffffffffffffffffff1663095ea7b3600360009054906101000a900473ffffffffffffffffffffffffffffffffffffffff16846040518363ffffffff1660e01b815260040161050e929190610a24565b6020604051808303816000875af115801561052d573d6000803e3d6000fd5b505050506040513d601f19601f820116820180604052508101906105519190610a85565b50600160009054906101000a900473ffffffffffffffffffffffffffffffffffffffff1673ffffffffffffffffffffffffffffffffffffffff166380500d208284336040518463ffffffff1660e01b81526004016105b193929190610b8f565b600060405180830381600087803b1580156105cb57600080fd5b505af11580156105df573d6000803e3d6000fd5b505050503373ffffffffffffffffffffffffffffffffffffffff167f6d3e5f2222ab57d0981e3ce9d7e33e36f0a1d9e4e7019cf3119af24dcc9083de834260405161062b929190610b2f565b60405180910390a25050565b60008060009054906101000a900473ffffffffffffffffffffffffffffffffffffffff1673ffffffffffffffffffffffffffffffffffffffff1663dd62ed3e30600360009054906101000a900473ffffffffffffffffffffffffffffffffffffffff166040518363ffffffff1660e01b81526004016106b7929190610bc6565b602060405180830381865afa1580156106d4573d6000803e3d6000fd5b505050506040513d601f19601f820116820180604052508101906106f89190610c04565b905090565b60008060009054906101000a900473ffffffffffffffffffffffffffffffffffffffff1673ffffffffffffffffffffffffffffffffffffffff166370a08231836040518263ffffffff1660e01b815260040161075991906107e2565b602060405180830381865afa158015610776573d6000803e3d6000fd5b505050506040513d601f19601f8201168201806040525081019061079a9190610c04565b9050919050565b600073ffffffffffffffffffffffffffffffffffffffff82169050919050565b60006107cc826107a1565b9050919050565b6107dc816107c1565b82525050565b60006020820190506107f760008301846107d3565b92915050565b6000819050919050565b600061082261081d610818846107a1565b6107fd565b6107a1565b9050919050565b600061083482610807565b9050919050565b600061084682610829565b9050919050565b6108568161083b565b82525050565b6000602082019050610871600083018461084d565b92915050565b600080fd5b6000819050919050565b61088f8161087c565b811461089a57600080fd5b50565b6000813590506108ac81610886565b92915050565b6000602082840312156108c8576108c7610877565b5b60006108d68482850161089d565b91505092915050565b6108e88161087c565b82525050565b600060208201905061090360008301846108df565b92915050565b610912816107c1565b811461091d57600080fd5b50565b60008135905061092f81610909565b92915050565b60006020828403121561094b5761094a610877565b5b600061095984828501610920565b91505092915050565b60008151905061097181610909565b92915050565b60006020828403121561098d5761098c610877565b5b600061099b84828501610962565b91505092915050565b6000819050919050565b600061ffff82169050919050565b60006109d76109d26109cd846109a4565b6107fd565b6109ae565b9050919050565b6109e7816109bc565b82525050565b6000606082019050610a0260008301866107d3565b610a0f60208301856107d3565b610a1c60408301846109de565b949350505050565b6000604082019050610a3960008301856107d3565b610a4660208301846108df565b9392505050565b60008115159050919050565b610a6281610a4d565b8114610a6d57600080fd5b50565b600081519050610a7f81610a59565b92915050565b600060208284031215610a9b57610a9a610877565b5b6000610aa984828501610a70565b91505092915050565b600082825260208201905092915050565b7f4465706f73697420746f2041617665206661696c656400000000000000000000600082015250565b6000610af9601683610ab2565b9150610b0482610ac3565b602082019050919050565b60006020820190508181036000830152610b2881610aec565b9050919050565b6000604082019050610b4460008301856108df565b610b5160208301846108df565b9392505050565b6000606082019050610b6d60008301866107d3565b610b7a60208301856107d3565b610b8760408301846108df565b949350505050565b6000606082019050610ba460008301866107d3565b610bb160208301856108df565b610bbe60408301846107d3565b949350505050565b6000604082019050610bdb60008301856107d3565b610be860208301846107d3565b9392505050565b600081519050610bfe81610886565b92915050565b600060208284031215610c1a57610c19610877565b5b6000610c2884828501610bef565b9150509291505056fea2646970667358221220e7cc65d84fc6332d02a062a0c5405b4006a67a86a452b3853cff80820969bb7164736f6c63430008120033",
  "linkReferences": {},
  "deployedLinkReferences": {}
}